{
  "_format": "hh-sol-artifact-1",
  "contractName": "LightClientStore",
  "sourceName": "contracts/LightClientStore.sol",
  "abi": [
    {
      "inputs": [
        {
          "internalType": "contract ILightClientValidator",
          "name": "_lcValidator",
          "type": "address"
        },
        {
          "components": [
            {
              "internalType": "uint64",
              "name": "slot",
              "type": "uint64"
            },
            {
              "internalType": "uint64",
              "name": "proposerIndex",
              "type": "uint64"
            },
            {
              "internalType": "bytes32",
              "name": "parentRoot",
              "type": "bytes32"
            },
            {
              "internalType": "bytes32",
              "name": "stateRoot",
              "type": "bytes32"
            },
            {
              "internalType": "bytes32",
              "name": "bodyRoot",
              "type": "bytes32"
            }
          ],
          "internalType": "struct ILightClientStore.BeaconHeader",
          "name": "boostrapHeader",
          "type": "tuple"
        },
        {
          "internalType": "bytes32",
          "name": "boostrapSyncCommitteeRoot",
          "type": "bytes32"
        }
      ],
      "stateMutability": "nonpayable",
      "type": "constructor"
    },
    {
      "anonymous": false,
      "inputs": [
        {
          "components": [
            {
              "internalType": "uint64",
              "name": "slot",
              "type": "uint64"
            },
            {
              "internalType": "uint64",
              "name": "proposerIndex",
              "type": "uint64"
            },
            {
              "internalType": "bytes32",
              "name": "parentRoot",
              "type": "bytes32"
            },
            {
              "internalType": "bytes32",
              "name": "stateRoot",
              "type": "bytes32"
            },
            {
              "internalType": "bytes32",
              "name": "bodyRoot",
              "type": "bytes32"
            }
          ],
          "indexed": false,
          "internalType": "struct ILightClientStore.BeaconHeader",
          "name": "newHeader",
          "type": "tuple"
        }
      ],
      "name": "FinalityHeaderUpdated",
      "type": "event"
    },
    {
      "anonymous": false,
      "inputs": [
        {
          "components": [
            {
              "internalType": "uint16",
              "name": "activeParticipants",
              "type": "uint16"
            },
            {
              "internalType": "uint64",
              "name": "attestedHeaderSlot",
              "type": "uint64"
            },
            {
              "internalType": "uint64",
              "name": "signatureSlot",
              "type": "uint64"
            },
            {
              "internalType": "uint64",
              "name": "finalizedHeaderSlot",
              "type": "uint64"
            },
            {
              "internalType": "bool",
              "name": "isSyncCommitteeUpdate",
              "type": "bool"
            },
            {
              "internalType": "bool",
              "name": "isFinalityUpdate",
              "type": "bool"
            }
          ],
          "indexed": false,
          "internalType": "struct ILightClientStore.LightClientUpdateSummary",
          "name": "summary",
          "type": "tuple"
        }
      ],
      "name": "LCUpdateSynced",
      "type": "event"
    },
    {
      "anonymous": false,
      "inputs": [
        {
          "components": [
            {
              "internalType": "uint64",
              "name": "slot",
              "type": "uint64"
            },
            {
              "internalType": "uint64",
              "name": "proposerIndex",
              "type": "uint64"
            },
            {
              "internalType": "bytes32",
              "name": "parentRoot",
              "type": "bytes32"
            },
            {
              "internalType": "bytes32",
              "name": "stateRoot",
              "type": "bytes32"
            },
            {
              "internalType": "bytes32",
              "name": "bodyRoot",
              "type": "bytes32"
            }
          ],
          "indexed": false,
          "internalType": "struct ILightClientStore.BeaconHeader",
          "name": "newHeader",
          "type": "tuple"
        }
      ],
      "name": "OptimisticHeaderUpdated",
      "type": "event"
    },
    {
      "inputs": [],
      "name": "MAX_SYNC_PERIODS_CACHE",
      "outputs": [
        {
          "internalType": "uint8",
          "name": "",
          "type": "uint8"
        }
      ],
      "stateMutability": "view",
      "type": "function"
    },
    {
      "inputs": [],
      "name": "SAFETY_THRESHOLD",
      "outputs": [
        {
          "internalType": "uint8",
          "name": "",
          "type": "uint8"
        }
      ],
      "stateMutability": "view",
      "type": "function"
    },
    {
      "inputs": [],
      "name": "SLOTS_PER_PERIOD",
      "outputs": [
        {
          "internalType": "uint16",
          "name": "",
          "type": "uint16"
        }
      ],
      "stateMutability": "view",
      "type": "function"
    },
    {
      "inputs": [],
      "name": "SYNC_COMMITTEE_SIZE",
      "outputs": [
        {
          "internalType": "uint16",
          "name": "",
          "type": "uint16"
        }
      ],
      "stateMutability": "view",
      "type": "function"
    },
    {
      "inputs": [],
      "name": "allowForceUpdate",
      "outputs": [
        {
          "internalType": "bool",
          "name": "",
          "type": "bool"
        }
      ],
      "stateMutability": "view",
      "type": "function"
    },
    {
      "inputs": [],
      "name": "bestValidUpdatesIndex",
      "outputs": [
        {
          "internalType": "uint8",
          "name": "",
          "type": "uint8"
        }
      ],
      "stateMutability": "view",
      "type": "function"
    },
    {
      "inputs": [],
      "name": "finalizeHeader",
      "outputs": [
        {
          "internalType": "uint64",
          "name": "slot",
          "type": "uint64"
        },
        {
          "internalType": "uint64",
          "name": "proposerIndex",
          "type": "uint64"
        },
        {
          "internalType": "bytes32",
          "name": "parentRoot",
          "type": "bytes32"
        },
        {
          "internalType": "bytes32",
          "name": "stateRoot",
          "type": "bytes32"
        },
        {
          "internalType": "bytes32",
          "name": "bodyRoot",
          "type": "bytes32"
        }
      ],
      "stateMutability": "view",
      "type": "function"
    },
    {
      "inputs": [
        {
          "internalType": "uint64",
          "name": "period",
          "type": "uint64"
        }
      ],
      "name": "getMaxActiveParticipants",
      "outputs": [
        {
          "internalType": "uint16",
          "name": "",
          "type": "uint16"
        }
      ],
      "stateMutability": "view",
      "type": "function"
    },
    {
      "inputs": [
        {
          "internalType": "uint16",
          "name": "activeParticipants",
          "type": "uint16"
        }
      ],
      "name": "getSafetyThreshold",
      "outputs": [
        {
          "internalType": "uint16",
          "name": "",
          "type": "uint16"
        }
      ],
      "stateMutability": "pure",
      "type": "function"
    },
    {
      "inputs": [
        {
          "components": [
            {
              "internalType": "uint16",
              "name": "activeParticipants",
              "type": "uint16"
            },
            {
              "internalType": "uint64",
              "name": "attestedHeaderSlot",
              "type": "uint64"
            },
            {
              "internalType": "uint64",
              "name": "signatureSlot",
              "type": "uint64"
            },
            {
              "internalType": "uint64",
              "name": "finalizedHeaderSlot",
              "type": "uint64"
            },
            {
              "internalType": "bool",
              "name": "isSyncCommitteeUpdate",
              "type": "bool"
            },
            {
              "internalType": "bool",
              "name": "isFinalityUpdate",
              "type": "bool"
            }
          ],
          "internalType": "struct ILightClientStore.LightClientUpdateSummary",
          "name": "newUpdate",
          "type": "tuple"
        },
        {
          "components": [
            {
              "internalType": "uint16",
              "name": "activeParticipants",
              "type": "uint16"
            },
            {
              "internalType": "uint64",
              "name": "attestedHeaderSlot",
              "type": "uint64"
            },
            {
              "internalType": "uint64",
              "name": "signatureSlot",
              "type": "uint64"
            },
            {
              "internalType": "uint64",
              "name": "finalizedHeaderSlot",
              "type": "uint64"
            },
            {
              "internalType": "bool",
              "name": "isSyncCommitteeUpdate",
              "type": "bool"
            },
            {
              "internalType": "bool",
              "name": "isFinalityUpdate",
              "type": "bool"
            }
          ],
          "internalType": "struct ILightClientStore.LightClientUpdateSummary",
          "name": "oldUpdate",
          "type": "tuple"
        }
      ],
      "name": "isBetterLCUpdate",
      "outputs": [
        {
          "internalType": "bool",
          "name": "",
          "type": "bool"
        }
      ],
      "stateMutability": "pure",
      "type": "function"
    },
    {
      "inputs": [
        {
          "components": [
            {
              "internalType": "uint16",
              "name": "activeParticipants",
              "type": "uint16"
            },
            {
              "internalType": "uint64",
              "name": "attestedHeaderSlot",
              "type": "uint64"
            },
            {
              "internalType": "uint64",
              "name": "signatureSlot",
              "type": "uint64"
            },
            {
              "internalType": "uint64",
              "name": "finalizedHeaderSlot",
              "type": "uint64"
            },
            {
              "internalType": "bool",
              "name": "isSyncCommitteeUpdate",
              "type": "bool"
            },
            {
              "internalType": "bool",
              "name": "isFinalityUpdate",
              "type": "bool"
            }
          ],
          "internalType": "struct ILightClientStore.LightClientUpdateSummary",
          "name": "update",
          "type": "tuple"
        }
      ],
      "name": "isSafeLCUpdate",
      "outputs": [
        {
          "internalType": "bool",
          "name": "",
          "type": "bool"
        }
      ],
      "stateMutability": "pure",
      "type": "function"
    },
    {
      "inputs": [],
      "name": "lcValidator",
      "outputs": [
        {
          "internalType": "contract ILightClientValidator",
          "name": "",
          "type": "address"
        }
      ],
      "stateMutability": "view",
      "type": "function"
    },
    {
      "inputs": [],
      "name": "maxActiveParticipantsIndex",
      "outputs": [
        {
          "internalType": "uint8",
          "name": "",
          "type": "uint8"
        }
      ],
      "stateMutability": "view",
      "type": "function"
    },
    {
      "inputs": [],
      "name": "optimisticHeader",
      "outputs": [
        {
          "internalType": "uint64",
          "name": "slot",
          "type": "uint64"
        },
        {
          "internalType": "uint64",
          "name": "proposerIndex",
          "type": "uint64"
        },
        {
          "internalType": "bytes32",
          "name": "parentRoot",
          "type": "bytes32"
        },
        {
          "internalType": "bytes32",
          "name": "stateRoot",
          "type": "bytes32"
        },
        {
          "internalType": "bytes32",
          "name": "bodyRoot",
          "type": "bytes32"
        }
      ],
      "stateMutability": "view",
      "type": "function"
    },
    {
      "inputs": [
        {
          "components": [
            {
              "internalType": "bytes",
              "name": "finalityProof",
              "type": "bytes"
            },
            {
              "internalType": "bytes32[]",
              "name": "finalityData",
              "type": "bytes32[]"
            },
            {
              "internalType": "bytes",
              "name": "nextSyncCommProof",
              "type": "bytes"
            },
            {
              "internalType": "bytes32[]",
              "name": "nextSyncCommData",
              "type": "bytes32[]"
            },
            {
              "internalType": "bytes",
              "name": "lcUpdateProof",
              "type": "bytes"
            },
            {
              "internalType": "bytes32[]",
              "name": "lcUpdateData",
              "type": "bytes32[]"
            },
            {
              "internalType": "bytes32[2][512]",
              "name": "nextPubkeys",
              "type": "bytes32[2][512]"
            }
          ],
          "internalType": "struct ILightClientValidator.LCValidateData",
          "name": "lc",
          "type": "tuple"
        }
      ],
      "name": "processLCUpdate",
      "outputs": [],
      "stateMutability": "nonpayable",
      "type": "function"
    },
    {
      "inputs": [],
      "name": "queryCurrentBestValidUpdate",
      "outputs": [
        {
          "components": [
            {
              "internalType": "bytes32",
              "name": "nextSyncCommitteeRoot",
              "type": "bytes32"
            },
            {
              "components": [
                {
                  "internalType": "uint16",
                  "name": "activeParticipants",
                  "type": "uint16"
                },
                {
                  "internalType": "uint64",
                  "name": "attestedHeaderSlot",
                  "type": "uint64"
                },
                {
                  "internalType": "uint64",
                  "name": "signatureSlot",
                  "type": "uint64"
                },
                {
                  "internalType": "uint64",
                  "name": "finalizedHeaderSlot",
                  "type": "uint64"
                },
                {
                  "internalType": "bool",
                  "name": "isSyncCommitteeUpdate",
                  "type": "bool"
                },
                {
                  "internalType": "bool",
                  "name": "isFinalityUpdate",
                  "type": "bool"
                }
              ],
              "internalType": "struct ILightClientStore.LightClientUpdateSummary",
              "name": "summary",
              "type": "tuple"
            }
          ],
          "internalType": "struct ILightClientStore.LightClientUpdate",
          "name": "",
          "type": "tuple"
        }
      ],
      "stateMutability": "view",
      "type": "function"
    },
    {
      "inputs": [],
      "name": "queryCurrentMaxActiveParticipants",
      "outputs": [
        {
          "components": [
            {
              "internalType": "uint64",
              "name": "period",
              "type": "uint64"
            },
            {
              "internalType": "uint16",
              "name": "count",
              "type": "uint16"
            }
          ],
          "internalType": "struct ILightClientStore.ActiveParticipants",
          "name": "",
          "type": "tuple"
        }
      ],
      "stateMutability": "view",
      "type": "function"
    },
    {
      "inputs": [],
      "name": "queryCurrentSyncCommitee",
      "outputs": [
        {
          "components": [
            {
              "internalType": "bytes32",
              "name": "syncCommitteeRoot",
              "type": "bytes32"
            },
            {
              "internalType": "uint64",
              "name": "period",
              "type": "uint64"
            }
          ],
          "internalType": "struct ILightClientStore.SyncCommittee",
          "name": "",
          "type": "tuple"
        }
      ],
      "stateMutability": "view",
      "type": "function"
    },
    {
      "inputs": [
        {
          "internalType": "uint64",
          "name": "slot",
          "type": "uint64"
        }
      ],
      "name": "slotToPeriod",
      "outputs": [
        {
          "internalType": "uint64",
          "name": "",
          "type": "uint64"
        }
      ],
      "stateMutability": "pure",
      "type": "function"
    },
    {
      "inputs": [],
      "name": "syncCommitteesIndex",
      "outputs": [
        {
          "internalType": "uint8",
          "name": "",
          "type": "uint8"
        }
      ],
      "stateMutability": "view",
      "type": "function"
    }
  ],
  "bytecode": "0x60806040526000805460ff60b81b1916600160b81b1790553480156200002457600080fd5b506040516200262b3803806200262b833981016040819052620000479162000279565b600080546001600160a01b0319166001600160a01b0385161790556200006d82620000ea565b62000078826200019b565b60405180604001604052808281526020016200009e84600001516200024660201b60201c565b6001600160401b039081169091528151600955602090910151600a80546001600160401b03191691909216179055505060008054600160a01b60ff60a01b19909116179055506200037a565b805160018054602080850180516001600160401b0390811668010000000000000000026001600160801b03199094169581169586179390931790935560408086018051600255606080880180516003556080808a0180516004558551998a529751909616948801949094529051918601919091529051908401529051908201527f24b06b8bc83613576fc46ffd01ee252e765fae2ef753668052d0f00a031db9ac9060a0015b60405180910390a150565b805160058054602080850180516001600160401b0390811668010000000000000000026001600160801b03199094169581169586179390931790935560408086018051600655606080880180516007556080808a0180516008558551998a529751909616948801949094529051918601919091529051908401529051908201527f6efd2ce9fdb27c69b4e4ce88e64672c91b7fe76bda6980b68867231c216e08c39060a00162000190565b6000620002566120008362000345565b92915050565b80516001600160401b03811681146200027457600080fd5b919050565b600080600083850360e08112156200029057600080fd5b84516001600160a01b0381168114620002a857600080fd5b935060a0601f1982011215620002bd57600080fd5b5060405160a081016001600160401b0381118282101715620002ef57634e487b7160e01b600052604160045260246000fd5b60405262000300602086016200025c565b815262000310604086016200025c565b6020820152606085015160408201526080850151606082015260a085015160808201528092505060c084015190509250925092565b60006001600160401b03838116806200036e57634e487b7160e01b600052601260045260246000fd5b92169190910492915050565b6122a1806200038a6000396000f3fe608060405234801561001057600080fd5b506004361061016c5760003560e01c8063b1471a02116100cd578063e5fe07b011610081578063e88b2ad811610066578063e88b2ad8146103ec578063f00b373c14610401578063f72040fc1461042757600080fd5b8063e5fe07b0146103d9578063e7b016271461034757600080fd5b8063d76c897e116100b2578063d76c897e1461034f578063db0fd6fa14610380578063e597eab5146103ac57600080fd5b8063b1471a0214610320578063cc4179b01461034757600080fd5b80638cc16cfd116101245780639b46deba116101095780639b46deba14610272578063ab34a102146102aa578063ae87bf61146102db57600080fd5b80638cc16cfd146101d657806393d6360a1461020d57600080fd5b80635cc23166116101555780635cc23166146101a75780637315d13f146101ba57806385ad701e146101c357600080fd5b80632073ee701461017157806354c6990d14610192575b600080fd5b61017a61200081565b60405161ffff90911681526020015b60405180910390f35b6101a56101a0366004611a33565b61043a565b005b61017a6101b5366004611b7a565b610780565b61017a61020081565b61017a6101d1366004611bb4565b610793565b6000546101fb9074010000000000000000000000000000000000000000900460ff1681565b60405160ff9091168152602001610189565b60015460025460035460045461023e9367ffffffffffffffff80821694680100000000000000009092041692909185565b6040805167ffffffffffffffff9687168152959094166020860152928401919091526060830152608082015260a001610189565b60005461029a9077010000000000000000000000000000000000000000000000900460ff1681565b6040519015158152602001610189565b6102b26107d7565b60408051825167ffffffffffffffff16815260209283015161ffff169281019290925201610189565b6000546102fb9073ffffffffffffffffffffffffffffffffffffffff1681565b60405173ffffffffffffffffffffffffffffffffffffffff9091168152602001610189565b6000546101fb90760100000000000000000000000000000000000000000000900460ff1681565b6101fb600281565b60055460065460075460085461023e9367ffffffffffffffff80821694680100000000000000009092041692909185565b61039361038e366004611bb4565b610868565b60405167ffffffffffffffff9091168152602001610189565b6103b4610876565b604080518251815260209283015167ffffffffffffffff169281019290925201610189565b61029a6103e7366004611c6d565b610903565b6103f4610b85565b6040516101899190611ca3565b6000546101fb907501000000000000000000000000000000000000000000900460ff1681565b61029a610435366004611d14565b610cec565b600080546040517f7c3096f70000000000000000000000000000000000000000000000000000000081528291829173ffffffffffffffffffffffffffffffffffffffff90911690637c3096f790610495908790600401611e04565b61022060405180830381865afa1580156104b3573d6000803e3d6000fd5b505050506040513d601f19601f820116820180604052508101906104d79190611f56565b925092509250826000015167ffffffffffffffff1681602001516020015167ffffffffffffffff161461056b576040517f08c379a000000000000000000000000000000000000000000000000000000000815260206004820152601e60248201527f61747465737465642068656164657220736c6f7473206d69736d61746368000060448201526064015b60405180910390fd5b816000015167ffffffffffffffff1681602001516060015167ffffffffffffffff16146105f4576040517f08c379a000000000000000000000000000000000000000000000000000000000815260206004820152601f60248201527f66696e616c697a65642068656164657220736c6f7473206d69736d61746368006044820152606401610562565b6000610607826020015160400151610868565b905061061281610d35565b506020820151516106238282611139565b600061062e83610793565b905061063981610780565b61ffff168261ffff1611801561065f5750600554865167ffffffffffffffff9182169116115b1561066d5761066d86611258565b61067a61020060026120ba565b61ffff166106898360036120ba565b61ffff16101580156106ab5750600154855167ffffffffffffffff9182169116115b15610724576106b985611322565b60055460015467ffffffffffffffff91821691161115610724576040805160a08101825260015467ffffffffffffffff808216835268010000000000000000909104166020820152600254918101919091526003546060820152600454608082015261072490611258565b8360200151608001511561073c5761073c83856113e5565b7f29704d6bbbc09139c34fe6a9842d6b80bd0bf11967146e48d7c5654e6faae60d846020015160405161076f91906120e0565b60405180910390a150505050505050565b600061078d60028361216c565b92915050565b60008061079f8361172a565b905060006107b66107b160018661218d565b61172a565b90508061ffff168261ffff16116107cd57806107cf565b815b949350505050565b60408051808201909152600080825260208201526011600260016002600060169054906101000a900460ff1661080d91906121ae565b61081791906121c7565b61082191906121e0565b60ff166002811061083457610834612202565b6040805180820190915291015467ffffffffffffffff8116825268010000000000000000900461ffff166020820152919050565b600061078d61200083612231565b60408051808201909152600080825260208201526009600260016002600060149054906101000a900460ff166108ac91906121ae565b6108b691906121c7565b6108c091906121e0565b60ff16600281106108d3576108d3612202565b6040805180820190915260029190910291909101805482526001015467ffffffffffffffff166020820152919050565b81518151600091908261091961020060026120ba565b61ffff166109288460036120ba565b61ffff1610159050600061093f61020060026120ba565b61ffff1661094e8460036120ba565b61ffff1610159050811515811461096a5750925061078d915050565b8115801561098057508261ffff168461ffff1614155b1561099757505061ffff908116911611905061078d565b6000876080015180156109d557506109b28860400151610868565b67ffffffffffffffff166109c98960200151610868565b67ffffffffffffffff16145b9050600087608001518015610a1557506109f28860400151610868565b67ffffffffffffffff16610a098960200151610868565b67ffffffffffffffff16145b905080151582151514610a2f5750945061078d9350505050565b60a0808a01519089015181151581151514610a535750965061078d95505050505050565b8115610adc576000610a688c60200151610868565b67ffffffffffffffff16610a7f8d60600151610868565b67ffffffffffffffff161490506000610a9b8c60200151610868565b67ffffffffffffffff16610ab28d60600151610868565b67ffffffffffffffff161490508115158114610ad95750985061078d975050505050505050565b50505b8661ffff168861ffff1614610b05578661ffff168861ffff16119850505050505050505061078d565b896020015167ffffffffffffffff168b6020015167ffffffffffffffff1614610b5657896020015167ffffffffffffffff168b6020015167ffffffffffffffff16109850505050505050505061078d565b896040015167ffffffffffffffff168b6040015167ffffffffffffffff16109850505050505050505092915050565b610bcd6040805180820182526000808252825160c0810184528181526020818101839052938101829052606081018290526080810182905260a0810191909152909182015290565b600d600260016002600060159054906101000a900460ff16610bef91906121ae565b610bf991906121c7565b610c0391906121e0565b60ff1660028110610c1657610c16612202565b6040805180820182526002929092029290920180548252825160c08101845260019091015461ffff8116825267ffffffffffffffff62010000820481166020848101919091526a010000000000000000000083048216958401959095527201000000000000000000000000000000000000820416606083015260ff7a01000000000000000000000000000000000000000000000000000082048116151560808401527b0100000000000000000000000000000000000000000000000000000090910416151560a082015291810191909152919050565b60008160a001518015610d00575081608001515b801561078d5750610d1461020060026120ba565b61ffff1682600001516003610d2991906120ba565b61ffff16101592915050565b604080518082019091526000808252602082015260005b600260ff82161015610dea578267ffffffffffffffff1660098260ff1660028110610d7957610d79612202565b600202016001015467ffffffffffffffff1603610dd85760098160ff1660028110610da657610da6612202565b6040805180820190915260029190910291909101805482526001015467ffffffffffffffff1660208201529392505050565b80610de28161224c565b915050610d4c565b5060005b600260ff821610156110b057610e0560018461218d565b67ffffffffffffffff16610e4c600d8360ff1660028110610e2857610e28612202565b60020201600101600001600a9054906101000a900467ffffffffffffffff16610868565b67ffffffffffffffff160361109e57610f37600d8260ff1660028110610e7457610e74612202565b6040805160c081018252600160029390930293909301919091015461ffff8116835267ffffffffffffffff620100008204811660208501526a0100000000000000000000820481169284019290925272010000000000000000000000000000000000008104909116606083015260ff7a01000000000000000000000000000000000000000000000000000082048116151560808401527b0100000000000000000000000000000000000000000000000000000090910416151560a0820152610cec565b80610f5f575060005477010000000000000000000000000000000000000000000000900460ff165b1561109e5760006040518060400160405280600d8460ff1660028110610f8757610f87612202565b600202016000015481526020018567ffffffffffffffff168152509050806009600060149054906101000a900460ff1660ff1660028110610fca57610fca612202565b8251600291820292909201918255602090920151600191820180547fffffffffffffffffffffffffffffffffffffffffffffffff00000000000000001667ffffffffffffffff909216919091179055600054611042917401000000000000000000000000000000000000000090910460ff16906121ae565b61104c91906121e0565b6000805460ff9290921674010000000000000000000000000000000000000000027fffffffffffffffffffffff00ffffffffffffffffffffffffffffffffffffffff9092169190911790559392505050565b806110a88161224c565b915050610dee565b506040517f08c379a000000000000000000000000000000000000000000000000000000000815260206004820152603060248201527f4e6f2073796e6320636f6d6d697474656520617661696c61626c6520666f722060448201527f74686520676976656e20706572696f64000000000000000000000000000000006064820152608401610562565b60006111448361172a565b90508061ffff168261ffff161115611253576040805180820190915267ffffffffffffffff8416815261ffff83166020820152600054601190760100000000000000000000000000000000000000000000900460ff16600281106111aa576111aa612202565b82519101805460209093015161ffff1668010000000000000000027fffffffffffffffffffffffffffffffffffffffffffff0000000000000000000090931667ffffffffffffffff9092169190911791909117905560005460029061122e9060ff7601000000000000000000000000000000000000000000009091041660016121ae565b61123891906121e0565b600060166101000a81548160ff021916908360ff1602179055505b505050565b8051600580546020808501805167ffffffffffffffff90811668010000000000000000027fffffffffffffffffffffffffffffffff000000000000000000000000000000009094169581169586179390931790935560408086018051600655606080880180516007556080808a0180516008558551998a529751909616948801949094529051918601919091529051908401529051908201527f6efd2ce9fdb27c69b4e4ce88e64672c91b7fe76bda6980b68867231c216e08c39060a0015b60405180910390a150565b8051600180546020808501805167ffffffffffffffff90811668010000000000000000027fffffffffffffffffffffffffffffffff000000000000000000000000000000009094169581169586179390931790935560408086018051600255606080880180516003556080808a0180516004558551998a529751909616948801949094529051918601919091529051908401529051908201527f24b06b8bc83613576fc46ffd01ee252e765fae2ef753668052d0f00a031db9ac9060a001611317565b60005b600260ff82161015611523578267ffffffffffffffff16611418600d8360ff1660028110610e2857610e28612202565b67ffffffffffffffff1603611511576115088260200151600d8360ff166002811061144557611445612202565b6040805160c081018252600160029390930293909301919091015461ffff8116835267ffffffffffffffff620100008204811660208501526a0100000000000000000000820481169284019290925272010000000000000000000000000000000000008104909116606083015260ff7a01000000000000000000000000000000000000000000000000000082048116151560808401527b0100000000000000000000000000000000000000000000000000000090910416151560a0820152610903565b61151157505050565b8061151b8161224c565b9150506113e8565b506000548190600d907501000000000000000000000000000000000000000000900460ff166002811061155857611558612202565b82516002918202929092019182556020928301518051600193840180549583015160408401516060850151608086015160a09096015115157b01000000000000000000000000000000000000000000000000000000027fffffffff00ffffffffffffffffffffffffffffffffffffffffffffffffffffff9615157a01000000000000000000000000000000000000000000000000000002969096167fffffffff0000ffffffffffffffffffffffffffffffffffffffffffffffffffff67ffffffffffffffff9283167201000000000000000000000000000000000000027fffffffffffff0000000000000000ffffffffffffffffffffffffffffffffffff9484166a010000000000000000000002949094167fffffffffffff00000000000000000000000000000000ffffffffffffffffffff9390951662010000027fffffffffffffffffffffffffffffffffffffffffffff00000000000000000000909b1661ffff909716969096179990991716919091171791909116949094171790925560005461170291750100000000000000000000000000000000000000000090910460ff16906121ae565b61170c91906121e0565b600060156101000a81548160ff021916908360ff1602179055505050565b6000805b600260ff821610156117ad578267ffffffffffffffff1660118260ff166002811061175b5761175b612202565b015467ffffffffffffffff160361179b5760118160ff166002811061178257611782612202565b015468010000000000000000900461ffff169392505050565b806117a58161224c565b91505061172e565b50600092915050565b7f4e487b7100000000000000000000000000000000000000000000000000000000600052604160045260246000fd5b60405160e0810167ffffffffffffffff81118282101715611808576118086117b6565b60405290565b60405160c0810167ffffffffffffffff81118282101715611808576118086117b6565b6040805190810167ffffffffffffffff81118282101715611808576118086117b6565b604051614000810167ffffffffffffffff81118282101715611808576118086117b6565b604051601f8201601f1916810167ffffffffffffffff811182821017156118a1576118a16117b6565b604052919050565b600082601f8301126118ba57600080fd5b813567ffffffffffffffff8111156118d4576118d46117b6565b6118e76020601f19601f84011601611878565b8181528460208386010111156118fc57600080fd5b816020850160208301376000918101602001919091529392505050565b600082601f83011261192a57600080fd5b8135602067ffffffffffffffff821115611946576119466117b6565b8160051b611955828201611878565b928352848101820192828101908785111561196f57600080fd5b83870192505b8483101561198e57823582529183019190830190611975565b979650505050505050565b6000601f83818401126119ab57600080fd5b6119b3611854565b806180008501868111156119c657600080fd5b855b81811015611a275787858201126119df5760008081fd5b6119e7611831565b80604083018a8111156119fa5760008081fd5b835b81811015611a145780358452602093840193016119fc565b50508552506020909301926040016119c8565b50909695505050505050565b600060208284031215611a4557600080fd5b813567ffffffffffffffff80821115611a5d57600080fd5b908301906180c08286031215611a7257600080fd5b611a7a6117e5565b823582811115611a8957600080fd5b611a95878286016118a9565b825250602083013582811115611aaa57600080fd5b611ab687828601611919565b602083015250604083013582811115611ace57600080fd5b611ada878286016118a9565b604083015250606083013582811115611af257600080fd5b611afe87828601611919565b606083015250608083013582811115611b1657600080fd5b611b22878286016118a9565b60808301525060a083013582811115611b3a57600080fd5b611b4687828601611919565b60a083015250611b598660c08501611999565b60c082015295945050505050565b61ffff81168114611b7757600080fd5b50565b600060208284031215611b8c57600080fd5b8135611b9781611b67565b9392505050565b67ffffffffffffffff81168114611b7757600080fd5b600060208284031215611bc657600080fd5b8135611b9781611b9e565b8015158114611b7757600080fd5b600060c08284031215611bf157600080fd5b611bf961180e565b90508135611c0681611b67565b81526020820135611c1681611b9e565b60208201526040820135611c2981611b9e565b60408201526060820135611c3c81611b9e565b60608201526080820135611c4f81611bd1565b608082015260a0820135611c6281611bd1565b60a082015292915050565b6000806101808385031215611c8157600080fd5b611c8b8484611bdf565b9150611c9a8460c08501611bdf565b90509250929050565b8151815260208083015160e0830191611d0d9084018261ffff8151168252602081015167ffffffffffffffff8082166020850152806040840151166040850152806060840151166060850152505060808101511515608083015260a0810151151560a08301525050565b5092915050565b600060c08284031215611d2657600080fd5b611b978383611bdf565b6000815180845260005b81811015611d5657602081850181015186830182015201611d3a565b506000602082860101526020601f19601f83011685010191505092915050565b600081518084526020808501945080840160005b83811015611da657815187529582019590820190600101611d8a565b509495945050505050565b806000805b610200811015611dfd57825185835b6002811015611de4578251825260209283019290910190600101611dc5565b5050506040949094019360209290920191600101611db6565b5050505050565b60208152600082516180c06020840152611e226180e0840182611d30565b90506020840151601f1980858403016040860152611e408383611d76565b92506040860151915080858403016060860152611e5d8383611d30565b92506060860151915080858403016080860152611e7a8383611d76565b925060808601519150808584030160a0860152611e978383611d30565b925060a08601519150808584030160c086015250611eb58282611d76565b91505060c0840151611eca60e0850182611db1565b509392505050565b600060a08284031215611ee457600080fd5b60405160a0810181811067ffffffffffffffff82111715611f0757611f076117b6565b80604052508091508251611f1a81611b9e565b81526020830151611f2a81611b9e565b806020830152506040830151604082015260608301516060820152608083015160808201525092915050565b6000806000838503610220811215611f6d57600080fd5b611f778686611ed2565b9350611f868660a08701611ed2565b925060e07ffffffffffffffffffffffffffffffffffffffffffffffffffffffffffffffec082011215611fb857600080fd5b611fc0611831565b610140860151815260c07ffffffffffffffffffffffffffffffffffffffffffffffffffffffffffffffea083011215611ff857600080fd5b61200061180e565b915061016086015161201181611b67565b825261018086015161202281611b9e565b60208301526101a086015161203681611b9e565b60408301526101c086015161204a81611b9e565b60608301526101e086015161205e81611bd1565b608083015261020086015161207281611bd1565b8060a08401525081602082015280925050509250925092565b7f4e487b7100000000000000000000000000000000000000000000000000000000600052601160045260246000fd5b61ffff8181168382160280821691908281146120d8576120d861208b565b505092915050565b60c0810161078d828461ffff8151168252602081015167ffffffffffffffff8082166020850152806040840151166040850152806060840151166060850152505060808101511515608083015260a0810151151560a08301525050565b7f4e487b7100000000000000000000000000000000000000000000000000000000600052601260045260246000fd5b600061ffff808416806121815761218161213d565b92169190910492915050565b67ffffffffffffffff828116828216039080821115611d0d57611d0d61208b565b60ff818116838216019081111561078d5761078d61208b565b60ff828116828216039081111561078d5761078d61208b565b600060ff8316806121f3576121f361213d565b8060ff84160691505092915050565b7f4e487b7100000000000000000000000000000000000000000000000000000000600052603260045260246000fd5b600067ffffffffffffffff808416806121815761218161213d565b600060ff821660ff81036122625761226261208b565b6001019291505056fea2646970667358221220d864bba8c7656dbc8bb345cc2cc663d59b9b16768a0d4ee06522e01287b4f5b264736f6c63430008130033",
  "linkReferences": {},
  "deployedLinkReferences": {}
}